{
  "contractName": "ProductStore",
  "abi": [
    {
      "inputs": [
        {
          "internalType": "address",
          "name": "_ptaddress",
          "type": "address"
        },
        {
          "internalType": "address payable",
          "name": "_bfaddress",
          "type": "address"
        }
      ],
      "stateMutability": "nonpayable",
      "type": "constructor"
    },
    {
      "anonymous": false,
      "inputs": [
        {
          "indexed": false,
          "internalType": "uint256",
          "name": "productId",
          "type": "uint256"
        },
        {
          "indexed": false,
          "internalType": "address",
          "name": "seller",
          "type": "address"
        },
        {
          "indexed": false,
          "internalType": "address",
          "name": "buyer",
          "type": "address"
        },
        {
          "indexed": false,
          "internalType": "uint256",
          "name": "price",
          "type": "uint256"
        }
      ],
      "name": "LogSale",
      "type": "event"
    },
    {
      "anonymous": false,
      "inputs": [
        {
          "indexed": false,
          "internalType": "address",
          "name": "accountAddress",
          "type": "address"
        },
        {
          "indexed": false,
          "internalType": "uint256",
          "name": "withdrawAmount",
          "type": "uint256"
        },
        {
          "indexed": false,
          "internalType": "uint256",
          "name": "newBalance",
          "type": "uint256"
        }
      ],
      "name": "LogWithdrawal",
      "type": "event"
    },
    {
      "anonymous": false,
      "inputs": [
        {
          "indexed": true,
          "internalType": "address",
          "name": "previousOwner",
          "type": "address"
        },
        {
          "indexed": true,
          "internalType": "address",
          "name": "newOwner",
          "type": "address"
        }
      ],
      "name": "OwnershipTransferred",
      "type": "event"
    },
    {
      "stateMutability": "payable",
      "type": "fallback",
      "payable": true
    },
    {
      "inputs": [],
      "name": "biodiversityFund",
      "outputs": [
        {
          "internalType": "address payable",
          "name": "",
          "type": "address"
        }
      ],
      "stateMutability": "view",
      "type": "function",
      "constant": true
    },
    {
      "inputs": [],
      "name": "owner",
      "outputs": [
        {
          "internalType": "address",
          "name": "",
          "type": "address"
        }
      ],
      "stateMutability": "view",
      "type": "function",
      "constant": true
    },
    {
      "inputs": [],
      "name": "renounceOwnership",
      "outputs": [],
      "stateMutability": "nonpayable",
      "type": "function"
    },
    {
      "inputs": [],
      "name": "stopped",
      "outputs": [
        {
          "internalType": "bool",
          "name": "",
          "type": "bool"
        }
      ],
      "stateMutability": "view",
      "type": "function",
      "constant": true
    },
    {
      "inputs": [
        {
          "internalType": "address",
          "name": "newOwner",
          "type": "address"
        }
      ],
      "name": "transferOwnership",
      "outputs": [],
      "stateMutability": "nonpayable",
      "type": "function"
    },
    {
      "inputs": [
        {
          "internalType": "address",
          "name": "_address",
          "type": "address"
        }
      ],
      "name": "setNewProductContract",
      "outputs": [],
      "stateMutability": "nonpayable",
      "type": "function"
    },
    {
      "inputs": [
        {
          "internalType": "address payable",
          "name": "newBiodiversityFund",
          "type": "address"
        }
      ],
      "name": "setNewBiodiversityFund",
      "outputs": [
        {
          "internalType": "address",
          "name": "",
          "type": "address"
        }
      ],
      "stateMutability": "nonpayable",
      "type": "function"
    },
    {
      "inputs": [
        {
          "internalType": "uint256",
          "name": "productId",
          "type": "uint256"
        }
      ],
      "name": "buyProduct",
      "outputs": [],
      "stateMutability": "payable",
      "type": "function",
      "payable": true
    },
    {
      "inputs": [
        {
          "internalType": "uint256",
          "name": "withdrawAmount",
          "type": "uint256"
        }
      ],
      "name": "withdraw",
      "outputs": [
        {
          "internalType": "uint256",
          "name": "",
          "type": "uint256"
        }
      ],
      "stateMutability": "nonpayable",
      "type": "function"
    },
    {
      "inputs": [],
      "name": "checkEthBalance",
      "outputs": [
        {
          "internalType": "uint256",
          "name": "",
          "type": "uint256"
        }
      ],
      "stateMutability": "view",
      "type": "function",
      "constant": true
    },
    {
      "inputs": [],
      "name": "declareEmergency",
      "outputs": [],
      "stateMutability": "nonpayable",
      "type": "function"
    },
    {
      "inputs": [],
      "name": "endEmergency",
      "outputs": [],
      "stateMutability": "nonpayable",
      "type": "function"
    }
  ],
  "bytecode": "0x60806040526000600260146101000a81548160ff0219169083151502179055503480156200002c57600080fd5b5060405162001cbb38038062001cbb833981810160405260408110156200005257600080fd5b81019080805190602001909291908051906020019092919050505060006200007f6200025760201b60201c565b9050806000806101000a81548173ffffffffffffffffffffffffffffffffffffffff021916908373ffffffffffffffffffffffffffffffffffffffff1602179055508073ffffffffffffffffffffffffffffffffffffffff16600073ffffffffffffffffffffffffffffffffffffffff167f8be0079c531659141344cd1fd0a4f28419497f9722a3daafe3b4186f6b6457e060405160405180910390a35081600160006101000a81548173ffffffffffffffffffffffffffffffffffffffff021916908373ffffffffffffffffffffffffffffffffffffffff160217905550600160009054906101000a900473ffffffffffffffffffffffffffffffffffffffff1673ffffffffffffffffffffffffffffffffffffffff166325dd20806040518163ffffffff1660e01b815260040160206040518083038186803b158015620001c757600080fd5b505afa158015620001dc573d6000803e3d6000fd5b505050506040513d6020811015620001f357600080fd5b81019080805190602001909291905050506200020e57600080fd5b80600260006101000a81548173ffffffffffffffffffffffffffffffffffffffff021916908373ffffffffffffffffffffffffffffffffffffffff16021790555050506200025f565b600033905090565b611a4c806200026f6000396000f3fe6080604052600436106100ab5760003560e01c806375f12b211161006457806375f12b21146101d75780638642269e146102045780638da5cb5b14610232578063caca6ebd14610273578063ec1ca071146102ee578063f2fde38b14610319576100ac565b80630464d46b146100b15780632e1a7d4d146100f257806331e244e5146101415780633f1b3f8f1461015857806345b2d62f1461016f578063715018a6146101c0576100ac565b5b600080fd5b3480156100bd57600080fd5b506100c661036a565b604051808273ffffffffffffffffffffffffffffffffffffffff16815260200191505060405180910390f35b3480156100fe57600080fd5b5061012b6004803603602081101561011557600080fd5b8101908080359060200190929190505050610390565b6040518082815260200191505060405180910390f35b34801561014d57600080fd5b5061015661059d565b005b34801561016457600080fd5b5061016d610682565b005b34801561017b57600080fd5b506101be6004803603602081101561019257600080fd5b81019080803573ffffffffffffffffffffffffffffffffffffffff169060200190929190505050610767565b005b3480156101cc57600080fd5b506101d561088c565b005b3480156101e357600080fd5b506101ec610a12565b60405180821515815260200191505060405180910390f35b6102306004803603602081101561021a57600080fd5b8101908080359060200190929190505050610a25565b005b34801561023e57600080fd5b506102476112d6565b604051808273ffffffffffffffffffffffffffffffffffffffff16815260200191505060405180910390f35b34801561027f57600080fd5b506102c26004803603602081101561029657600080fd5b81019080803573ffffffffffffffffffffffffffffffffffffffff1690602001909291905050506112ff565b604051808273ffffffffffffffffffffffffffffffffffffffff16815260200191505060405180910390f35b3480156102fa57600080fd5b5061030361144d565b6040518082815260200191505060405180910390f35b34801561032557600080fd5b506103686004803603602081101561033c57600080fd5b81019080803573ffffffffffffffffffffffffffffffffffffffff169060200190929190505050611494565b005b600260009054906101000a900473ffffffffffffffffffffffffffffffffffffffff1681565b600081600360003373ffffffffffffffffffffffffffffffffffffffff1673ffffffffffffffffffffffffffffffffffffffff1681526020019081526020016000205410156103de57600080fd5b61043082600360003373ffffffffffffffffffffffffffffffffffffffff1673ffffffffffffffffffffffffffffffffffffffff1681526020019081526020016000205461169f90919063ffffffff16565b600360003373ffffffffffffffffffffffffffffffffffffffff1673ffffffffffffffffffffffffffffffffffffffff168152602001908152602001600020819055503373ffffffffffffffffffffffffffffffffffffffff166108fc839081150290604051600060405180830381858888f193505050501580156104b9573d6000803e3d6000fd5b507ff9226daf630542048a23086c6af599511aac100ec8f532793cc9697d061bed7e3383600360003373ffffffffffffffffffffffffffffffffffffffff1673ffffffffffffffffffffffffffffffffffffffff16815260200190815260200160002054604051808473ffffffffffffffffffffffffffffffffffffffff168152602001838152602001828152602001935050505060405180910390a1600360003373ffffffffffffffffffffffffffffffffffffffff1673ffffffffffffffffffffffffffffffffffffffff168152602001908152602001600020549050919050565b6105a56116e9565b73ffffffffffffffffffffffffffffffffffffffff1660008054906101000a900473ffffffffffffffffffffffffffffffffffffffff1673ffffffffffffffffffffffffffffffffffffffff1614610665576040517f08c379a00000000000000000000000000000000000000000000000000000000081526004018080602001828103825260208152602001807f4f776e61626c653a2063616c6c6572206973206e6f7420746865206f776e657281525060200191505060405180910390fd5b6001600260146101000a81548160ff021916908315150217905550565b61068a6116e9565b73ffffffffffffffffffffffffffffffffffffffff1660008054906101000a900473ffffffffffffffffffffffffffffffffffffffff1673ffffffffffffffffffffffffffffffffffffffff161461074a576040517f08c379a00000000000000000000000000000000000000000000000000000000081526004018080602001828103825260208152602001807f4f776e61626c653a2063616c6c6572206973206e6f7420746865206f776e657281525060200191505060405180910390fd5b6000600260146101000a81548160ff021916908315150217905550565b61076f6116e9565b73ffffffffffffffffffffffffffffffffffffffff1660008054906101000a900473ffffffffffffffffffffffffffffffffffffffff1673ffffffffffffffffffffffffffffffffffffffff161461082f576040517f08c379a00000000000000000000000000000000000000000000000000000000081526004018080602001828103825260208152602001807f4f776e61626c653a2063616c6c6572206973206e6f7420746865206f776e657281525060200191505060405180910390fd5b600260149054906101000a900460ff1661084857600080fd5b80600160006101000a81548173ffffffffffffffffffffffffffffffffffffffff021916908373ffffffffffffffffffffffffffffffffffffffff16021790555050565b6108946116e9565b73ffffffffffffffffffffffffffffffffffffffff1660008054906101000a900473ffffffffffffffffffffffffffffffffffffffff1673ffffffffffffffffffffffffffffffffffffffff1614610954576040517f08c379a00000000000000000000000000000000000000000000000000000000081526004018080602001828103825260208152602001807f4f776e61626c653a2063616c6c6572206973206e6f7420746865206f776e657281525060200191505060405180910390fd5b600073ffffffffffffffffffffffffffffffffffffffff1660008054906101000a900473ffffffffffffffffffffffffffffffffffffffff1673ffffffffffffffffffffffffffffffffffffffff167f8be0079c531659141344cd1fd0a4f28419497f9722a3daafe3b4186f6b6457e060405160405180910390a360008060006101000a81548173ffffffffffffffffffffffffffffffffffffffff021916908373ffffffffffffffffffffffffffffffffffffffff160217905550565b600260149054906101000a900460ff1681565b600260149054906101000a900460ff1615610a3f57600080fd5b80600160009054906101000a900473ffffffffffffffffffffffffffffffffffffffff1673ffffffffffffffffffffffffffffffffffffffff166385ef87ae826040518263ffffffff1660e01b81526004018082815260200191505060206040518083038186803b158015610ab357600080fd5b505afa158015610ac7573d6000803e3d6000fd5b505050506040513d6020811015610add57600080fd5b8101908080519060200190929190505050610af757600080fd5b8180341015610b0557600080fd5b826000600160009054906101000a900473ffffffffffffffffffffffffffffffffffffffff1673ffffffffffffffffffffffffffffffffffffffff16636352211e866040518263ffffffff1660e01b81526004018082815260200191505060206040518083038186803b158015610b7b57600080fd5b505afa158015610b8f573d6000803e3d6000fd5b505050506040513d6020811015610ba557600080fd5b810190808051906020019092919050505090506000600160009054906101000a900473ffffffffffffffffffffffffffffffffffffffff1673ffffffffffffffffffffffffffffffffffffffff1663e7bf7dfc876040518263ffffffff1660e01b81526004018082815260200191505060206040518083038186803b158015610c2d57600080fd5b505afa158015610c41573d6000803e3d6000fd5b505050506040513d6020811015610c5757600080fd5b81019080805190602001909291905050509050610ce9610c946064610c86600a856116f190919063ffffffff16565b61177790919063ffffffff16565b60036000610ca06112d6565b73ffffffffffffffffffffffffffffffffffffffff1673ffffffffffffffffffffffffffffffffffffffff168152602001908152602001600020546117c190919063ffffffff16565b60036000610cf56112d6565b73ffffffffffffffffffffffffffffffffffffffff1673ffffffffffffffffffffffffffffffffffffffff16815260200190815260200160002081905550600160009054906101000a900473ffffffffffffffffffffffffffffffffffffffff1673ffffffffffffffffffffffffffffffffffffffff16630376c242876040518263ffffffff1660e01b81526004018082815260200191505060206040518083038186803b158015610da657600080fd5b505afa158015610dba573d6000803e3d6000fd5b505050506040513d6020811015610dd057600080fd5b810190808051906020019092919050505015610f3557610e5e610e106064610e026050856116f190919063ffffffff16565b61177790919063ffffffff16565b600360008573ffffffffffffffffffffffffffffffffffffffff1673ffffffffffffffffffffffffffffffffffffffff168152602001908152602001600020546117c190919063ffffffff16565b600360008473ffffffffffffffffffffffffffffffffffffffff1673ffffffffffffffffffffffffffffffffffffffff16815260200190815260200160002081905550600260009054906101000a900473ffffffffffffffffffffffffffffffffffffffff1673ffffffffffffffffffffffffffffffffffffffff166108fc610f046064610ef6600a866116f190919063ffffffff16565b61177790919063ffffffff16565b9081150290604051600060405180830381858888f19350505050158015610f2f573d6000803e3d6000fd5b50610ff1565b610fad610f5f6064610f51605a856116f190919063ffffffff16565b61177790919063ffffffff16565b600360008573ffffffffffffffffffffffffffffffffffffffff1673ffffffffffffffffffffffffffffffffffffffff168152602001908152602001600020546117c190919063ffffffff16565b600360008473ffffffffffffffffffffffffffffffffffffffff1673ffffffffffffffffffffffffffffffffffffffff168152602001908152602001600020819055505b600160009054906101000a900473ffffffffffffffffffffffffffffffffffffffff1673ffffffffffffffffffffffffffffffffffffffff166377c7008c876040518263ffffffff1660e01b815260040180828152602001915050600060405180830381600087803b15801561106657600080fd5b505af115801561107a573d6000803e3d6000fd5b50505050600160009054906101000a900473ffffffffffffffffffffffffffffffffffffffff1673ffffffffffffffffffffffffffffffffffffffff166342842e0e8333896040518463ffffffff1660e01b8152600401808473ffffffffffffffffffffffffffffffffffffffff1681526020018373ffffffffffffffffffffffffffffffffffffffff1681526020018281526020019350505050600060405180830381600087803b15801561112f57600080fd5b505af1158015611143573d6000803e3d6000fd5b505050507fccd36b3164af0133c3c67d2e8725bab0a2353d01ecb1f4a0fc812e50875a58aa86833384604051808581526020018473ffffffffffffffffffffffffffffffffffffffff1681526020018373ffffffffffffffffffffffffffffffffffffffff16815260200182815260200194505050505060405180910390a150506000611286600160009054906101000a900473ffffffffffffffffffffffffffffffffffffffff1673ffffffffffffffffffffffffffffffffffffffff1663e7bf7dfc846040518263ffffffff1660e01b81526004018082815260200191505060206040518083038186803b15801561123c57600080fd5b505afa158015611250573d6000803e3d6000fd5b505050506040513d602081101561126657600080fd5b81019080805190602001909291905050503461169f90919063ffffffff16565b90503373ffffffffffffffffffffffffffffffffffffffff166108fc829081150290604051600060405180830381858888f193505050501580156112ce573d6000803e3d6000fd5b505050505050565b60008060009054906101000a900473ffffffffffffffffffffffffffffffffffffffff16905090565b60006113096116e9565b73ffffffffffffffffffffffffffffffffffffffff1660008054906101000a900473ffffffffffffffffffffffffffffffffffffffff1673ffffffffffffffffffffffffffffffffffffffff16146113c9576040517f08c379a00000000000000000000000000000000000000000000000000000000081526004018080602001828103825260208152602001807f4f776e61626c653a2063616c6c6572206973206e6f7420746865206f776e657281525060200191505060405180910390fd5b600260149054906101000a900460ff166113e257600080fd5b81600260006101000a81548173ffffffffffffffffffffffffffffffffffffffff021916908373ffffffffffffffffffffffffffffffffffffffff160217905550600260009054906101000a900473ffffffffffffffffffffffffffffffffffffffff169050919050565b6000600360003373ffffffffffffffffffffffffffffffffffffffff1673ffffffffffffffffffffffffffffffffffffffff16815260200190815260200160002054905090565b61149c6116e9565b73ffffffffffffffffffffffffffffffffffffffff1660008054906101000a900473ffffffffffffffffffffffffffffffffffffffff1673ffffffffffffffffffffffffffffffffffffffff161461155c576040517f08c379a00000000000000000000000000000000000000000000000000000000081526004018080602001828103825260208152602001807f4f776e61626c653a2063616c6c6572206973206e6f7420746865206f776e657281525060200191505060405180910390fd5b600073ffffffffffffffffffffffffffffffffffffffff168173ffffffffffffffffffffffffffffffffffffffff1614156115e2576040517f08c379a00000000000000000000000000000000000000000000000000000000081526004018080602001828103825260268152602001806119d06026913960400191505060405180910390fd5b8073ffffffffffffffffffffffffffffffffffffffff1660008054906101000a900473ffffffffffffffffffffffffffffffffffffffff1673ffffffffffffffffffffffffffffffffffffffff167f8be0079c531659141344cd1fd0a4f28419497f9722a3daafe3b4186f6b6457e060405160405180910390a3806000806101000a81548173ffffffffffffffffffffffffffffffffffffffff021916908373ffffffffffffffffffffffffffffffffffffffff16021790555050565b60006116e183836040518060400160405280601e81526020017f536166654d6174683a207375627472616374696f6e206f766572666c6f770000815250611849565b905092915050565b600033905090565b6000808314156117045760009050611771565b600082840290508284828161171557fe5b041461176c576040517f08c379a00000000000000000000000000000000000000000000000000000000081526004018080602001828103825260218152602001806119f66021913960400191505060405180910390fd5b809150505b92915050565b60006117b983836040518060400160405280601a81526020017f536166654d6174683a206469766973696f6e206279207a65726f000000000000815250611909565b905092915050565b60008082840190508381101561183f576040517f08c379a000000000000000000000000000000000000000000000000000000000815260040180806020018281038252601b8152602001807f536166654d6174683a206164646974696f6e206f766572666c6f77000000000081525060200191505060405180910390fd5b8091505092915050565b60008383111582906118f6576040517f08c379a00000000000000000000000000000000000000000000000000000000081526004018080602001828103825283818151815260200191508051906020019080838360005b838110156118bb5780820151818401526020810190506118a0565b50505050905090810190601f1680156118e85780820380516001836020036101000a031916815260200191505b509250505060405180910390fd5b5060008385039050809150509392505050565b600080831182906119b5576040517f08c379a00000000000000000000000000000000000000000000000000000000081526004018080602001828103825283818151815260200191508051906020019080838360005b8381101561197a57808201518184015260208101905061195f565b50505050905090810190601f1680156119a75780820380516001836020036101000a031916815260200191505b509250505060405180910390fd5b5060008385816119c157fe5b04905080915050939250505056fe4f776e61626c653a206e6577206f776e657220697320746865207a65726f2061646472657373536166654d6174683a206d756c7469706c69636174696f6e206f766572666c6f77a2646970667358221220cbe7d1967e3559e6467fbf536de8308b9a093d074504c1951d9ef3279c011a8664736f6c634300060c0033",
  "immutableReferences": {},
  "source": "pragma solidity ^0.6.0;\n\nimport \"@openzeppelin/contracts/access/Ownable.sol\";\nimport \"@openzeppelin/contracts/math/SafeMath.sol\";\nimport \"./ProductToken.sol\";\n\n/// @title Nagoya Protocol Compliant Marketplace\n/// @author Brbara Schorchit\n/// @notice Sells tokenized biodiversity products and complies with the Nagoya Protocol by sending 1% of the sales to a biodiversity fund\ncontract ProductStore is Ownable {\n    using SafeMath for uint256;\n    ProductToken productContract;\n    address payable public biodiversityFund;\n    bool public stopped = false;\n    mapping (address => uint) private ethBalances;\n\n    event LogSale (uint productId, address seller, address buyer, uint price);\n    event LogWithdrawal(address accountAddress, uint withdrawAmount, uint newBalance);\n    \n    modifier paidEnough(uint _price) { require(msg.value >= _price); _;}\n    modifier checkValue(uint _productId) {\n        _;   //refund them after pay for item (why it is before, _ checks for logic before func)\n        uint amountToRefund = msg.value.sub(productContract.getProductPrice(_productId));\n        msg.sender.transfer(amountToRefund);\n    }\n    modifier productForSale(uint _productId) { require(productContract.isProductForSale(_productId)); _; }\n    modifier stopInEmergency { require(!stopped); _; }\n    modifier onlyInEmergency { require(stopped); _; }\n\n    /// @dev Contract constructor sets initial Product Token address and Biodiversity Fund address\n    /// @param _ptaddress The Product Token contract address\n    /// @param _bfaddress The Biodiversity Fund contract address\n    constructor(address _ptaddress, address payable _bfaddress) public {\n        productContract = ProductToken(_ptaddress);\n        require(productContract.isProductToken());\n        biodiversityFund = _bfaddress;\n    }\n\n    /// @dev Fallback function allows to deposit ether.\n    fallback() external payable { revert(); }\n\n    /// @notice Register the address of the contract that creates the products\n    /// @dev Circuit Breaker - Emergency mode should be triggered\n    /// @param _address Deployed Product Token contract address\n    function setNewProductContract(address _address) public onlyOwner onlyInEmergency {\n        productContract = ProductToken(_address);\n    }\n\n    /// @notice Register the address of the Multi Signature Wallet that manages the Biodiversity Fund\n    /// @dev Circuit Breaker - Emergency mode should be triggered\n    /// @param newBiodiversityFund Deployed Biodiversity Fund contract address\n    /// @return biodiversityFund The registered address\n    function setNewBiodiversityFund(address payable newBiodiversityFund) public onlyOwner onlyInEmergency returns (address) {\n        biodiversityFund = newBiodiversityFund;\n        return biodiversityFund;\n    }\n\n    /// @notice Buy a product in the marketplace\n    /// @dev It will be stopped in case of emergency\n    /// @param productId The id of the product to be purchased\n    function buyProduct(uint productId) public payable stopInEmergency productForSale(productId) paidEnough(productId) checkValue(productId) {\n        address seller = productContract.ownerOf(productId);\n        uint price = productContract.getProductPrice(productId);\n        ethBalances[owner()] = ethBalances[owner()].add((price.mul(10)).div(100)); //store's fee\n        if (productContract.isProductBio(productId)) {\n            ethBalances[seller] = ethBalances[seller].add((price.mul(80)).div(100));\n            biodiversityFund.transfer((price.mul(10)).div(100));\n        } else {\n            ethBalances[seller] = ethBalances[seller].add((price.mul(90)).div(100));\n        }\n        productContract.setProductNotForSale(productId);\n        productContract.safeTransferFrom(seller, msg.sender, productId);\n        emit LogSale(productId, seller, msg.sender, price);\n    }\n\n    /// @notice Withdraw money made in sales\n    /// @param withdrawAmount The amount of money to be withdraw\n    /// @return The user's balance in the contract\n    function withdraw(uint withdrawAmount) public returns (uint) {\n        require(ethBalances[msg.sender] >= withdrawAmount);\n        ethBalances[msg.sender] = ethBalances[msg.sender].sub(withdrawAmount);\n        msg.sender.transfer(withdrawAmount);\n        emit LogWithdrawal(msg.sender, withdrawAmount,ethBalances[msg.sender]);\n        return ethBalances[msg.sender];\n    }\n\n    /// @notice Returns user's balance\n    /// @return The user's balance in the contract\n    function checkEthBalance() public view returns (uint) {\n        return ethBalances[msg.sender];\n    }\n\n    /// @notice Circuit Breaker - Triggers emergency mode\n    function declareEmergency() public onlyOwner {\n        stopped = true;\n    }\n\n    /// @notice Circuit Breaker - Ends emergency mode\n    function endEmergency() public onlyOwner {\n        stopped = false;\n    }\n\n}",
  "sourcePath": "/Users/bschorchit/consensys-bootcamp-final-project/contracts/ProductStore.sol",
  "compiler": {
    "name": "solc",
    "version": "0.6.12+commit.27d51765.Emscripten.clang"
  },
  "schemaVersion": "3.3.2",
  "updatedAt": "2020-12-15T06:11:16.168Z",
  "networkType": "ethereum",
  "devdoc": {
    "author": "Brbara Schorchit",
    "kind": "dev",
    "methods": {
      "buyProduct(uint256)": {
        "details": "It will be stopped in case of emergency",
        "params": {
          "productId": "The id of the product to be purchased"
        }
      },
      "checkEthBalance()": {
        "returns": {
          "_0": "The user's balance in the contract"
        }
      },
      "constructor": {
        "details": "Contract constructor sets initial Product Token address and Biodiversity Fund address",
        "params": {
          "_bfaddress": "The Biodiversity Fund contract address",
          "_ptaddress": "The Product Token contract address"
        }
      },
      "owner()": {
        "details": "Returns the address of the current owner."
      },
      "renounceOwnership()": {
        "details": "Leaves the contract without owner. It will not be possible to call `onlyOwner` functions anymore. Can only be called by the current owner. NOTE: Renouncing ownership will leave the contract without an owner, thereby removing any functionality that is only available to the owner."
      },
      "setNewBiodiversityFund(address)": {
        "details": "Circuit Breaker - Emergency mode should be triggered",
        "params": {
          "newBiodiversityFund": "Deployed Biodiversity Fund contract address"
        },
        "returns": {
          "_0": "biodiversityFund The registered address"
        }
      },
      "setNewProductContract(address)": {
        "details": "Circuit Breaker - Emergency mode should be triggered",
        "params": {
          "_address": "Deployed Product Token contract address"
        }
      },
      "transferOwnership(address)": {
        "details": "Transfers ownership of the contract to a new account (`newOwner`). Can only be called by the current owner."
      },
      "withdraw(uint256)": {
        "params": {
          "withdrawAmount": "The amount of money to be withdraw"
        },
        "returns": {
          "_0": "The user's balance in the contract"
        }
      }
    },
    "title": "Nagoya Protocol Compliant Marketplace",
    "version": 1
  },
  "userdoc": {
    "kind": "user",
    "methods": {
      "buyProduct(uint256)": {
        "notice": "Buy a product in the marketplace"
      },
      "checkEthBalance()": {
        "notice": "Returns user's balance"
      },
      "declareEmergency()": {
        "notice": "Circuit Breaker - Triggers emergency mode"
      },
      "endEmergency()": {
        "notice": "Circuit Breaker - Ends emergency mode"
      },
      "setNewBiodiversityFund(address)": {
        "notice": "Register the address of the Multi Signature Wallet that manages the Biodiversity Fund"
      },
      "setNewProductContract(address)": {
        "notice": "Register the address of the contract that creates the products"
      },
      "withdraw(uint256)": {
        "notice": "Withdraw money made in sales"
      }
    },
    "notice": "Sells tokenized biodiversity products and complies with the Nagoya Protocol by sending 1% of the sales to a biodiversity fund",
    "version": 1
  }
}