{
  "contractName": "ProductToken",
  "abi": [
    {
      "inputs": [],
      "stateMutability": "nonpayable",
      "type": "constructor"
    },
    {
      "anonymous": false,
      "inputs": [
        {
          "indexed": true,
          "internalType": "address",
          "name": "owner",
          "type": "address"
        },
        {
          "indexed": true,
          "internalType": "address",
          "name": "approved",
          "type": "address"
        },
        {
          "indexed": true,
          "internalType": "uint256",
          "name": "tokenId",
          "type": "uint256"
        }
      ],
      "name": "Approval",
      "type": "event"
    },
    {
      "anonymous": false,
      "inputs": [
        {
          "indexed": true,
          "internalType": "address",
          "name": "owner",
          "type": "address"
        },
        {
          "indexed": true,
          "internalType": "address",
          "name": "operator",
          "type": "address"
        },
        {
          "indexed": false,
          "internalType": "bool",
          "name": "approved",
          "type": "bool"
        }
      ],
      "name": "ApprovalForAll",
      "type": "event"
    },
    {
      "anonymous": false,
      "inputs": [
        {
          "indexed": true,
          "internalType": "address",
          "name": "previousOwner",
          "type": "address"
        },
        {
          "indexed": true,
          "internalType": "address",
          "name": "newOwner",
          "type": "address"
        }
      ],
      "name": "OwnershipTransferred",
      "type": "event"
    },
    {
      "anonymous": false,
      "inputs": [
        {
          "indexed": true,
          "internalType": "address",
          "name": "from",
          "type": "address"
        },
        {
          "indexed": true,
          "internalType": "address",
          "name": "to",
          "type": "address"
        },
        {
          "indexed": true,
          "internalType": "uint256",
          "name": "tokenId",
          "type": "uint256"
        }
      ],
      "name": "Transfer",
      "type": "event"
    },
    {
      "inputs": [
        {
          "internalType": "address",
          "name": "to",
          "type": "address"
        },
        {
          "internalType": "uint256",
          "name": "tokenId",
          "type": "uint256"
        }
      ],
      "name": "approve",
      "outputs": [],
      "stateMutability": "nonpayable",
      "type": "function"
    },
    {
      "inputs": [
        {
          "internalType": "address",
          "name": "owner",
          "type": "address"
        }
      ],
      "name": "balanceOf",
      "outputs": [
        {
          "internalType": "uint256",
          "name": "",
          "type": "uint256"
        }
      ],
      "stateMutability": "view",
      "type": "function",
      "constant": true
    },
    {
      "inputs": [],
      "name": "baseURI",
      "outputs": [
        {
          "internalType": "string",
          "name": "",
          "type": "string"
        }
      ],
      "stateMutability": "view",
      "type": "function",
      "constant": true
    },
    {
      "inputs": [
        {
          "internalType": "uint256",
          "name": "tokenId",
          "type": "uint256"
        }
      ],
      "name": "getApproved",
      "outputs": [
        {
          "internalType": "address",
          "name": "",
          "type": "address"
        }
      ],
      "stateMutability": "view",
      "type": "function",
      "constant": true
    },
    {
      "inputs": [
        {
          "internalType": "address",
          "name": "owner",
          "type": "address"
        },
        {
          "internalType": "address",
          "name": "operator",
          "type": "address"
        }
      ],
      "name": "isApprovedForAll",
      "outputs": [
        {
          "internalType": "bool",
          "name": "",
          "type": "bool"
        }
      ],
      "stateMutability": "view",
      "type": "function",
      "constant": true
    },
    {
      "inputs": [],
      "name": "name",
      "outputs": [
        {
          "internalType": "string",
          "name": "",
          "type": "string"
        }
      ],
      "stateMutability": "view",
      "type": "function",
      "constant": true
    },
    {
      "inputs": [],
      "name": "owner",
      "outputs": [
        {
          "internalType": "address",
          "name": "",
          "type": "address"
        }
      ],
      "stateMutability": "view",
      "type": "function",
      "constant": true
    },
    {
      "inputs": [
        {
          "internalType": "uint256",
          "name": "tokenId",
          "type": "uint256"
        }
      ],
      "name": "ownerOf",
      "outputs": [
        {
          "internalType": "address",
          "name": "",
          "type": "address"
        }
      ],
      "stateMutability": "view",
      "type": "function",
      "constant": true
    },
    {
      "inputs": [],
      "name": "renounceOwnership",
      "outputs": [],
      "stateMutability": "nonpayable",
      "type": "function"
    },
    {
      "inputs": [
        {
          "internalType": "address",
          "name": "from",
          "type": "address"
        },
        {
          "internalType": "address",
          "name": "to",
          "type": "address"
        },
        {
          "internalType": "uint256",
          "name": "tokenId",
          "type": "uint256"
        }
      ],
      "name": "safeTransferFrom",
      "outputs": [],
      "stateMutability": "nonpayable",
      "type": "function"
    },
    {
      "inputs": [
        {
          "internalType": "address",
          "name": "from",
          "type": "address"
        },
        {
          "internalType": "address",
          "name": "to",
          "type": "address"
        },
        {
          "internalType": "uint256",
          "name": "tokenId",
          "type": "uint256"
        },
        {
          "internalType": "bytes",
          "name": "_data",
          "type": "bytes"
        }
      ],
      "name": "safeTransferFrom",
      "outputs": [],
      "stateMutability": "nonpayable",
      "type": "function"
    },
    {
      "inputs": [
        {
          "internalType": "address",
          "name": "operator",
          "type": "address"
        },
        {
          "internalType": "bool",
          "name": "approved",
          "type": "bool"
        }
      ],
      "name": "setApprovalForAll",
      "outputs": [],
      "stateMutability": "nonpayable",
      "type": "function"
    },
    {
      "inputs": [
        {
          "internalType": "bytes4",
          "name": "interfaceId",
          "type": "bytes4"
        }
      ],
      "name": "supportsInterface",
      "outputs": [
        {
          "internalType": "bool",
          "name": "",
          "type": "bool"
        }
      ],
      "stateMutability": "view",
      "type": "function",
      "constant": true
    },
    {
      "inputs": [],
      "name": "symbol",
      "outputs": [
        {
          "internalType": "string",
          "name": "",
          "type": "string"
        }
      ],
      "stateMutability": "view",
      "type": "function",
      "constant": true
    },
    {
      "inputs": [
        {
          "internalType": "uint256",
          "name": "index",
          "type": "uint256"
        }
      ],
      "name": "tokenByIndex",
      "outputs": [
        {
          "internalType": "uint256",
          "name": "",
          "type": "uint256"
        }
      ],
      "stateMutability": "view",
      "type": "function",
      "constant": true
    },
    {
      "inputs": [
        {
          "internalType": "address",
          "name": "owner",
          "type": "address"
        },
        {
          "internalType": "uint256",
          "name": "index",
          "type": "uint256"
        }
      ],
      "name": "tokenOfOwnerByIndex",
      "outputs": [
        {
          "internalType": "uint256",
          "name": "",
          "type": "uint256"
        }
      ],
      "stateMutability": "view",
      "type": "function",
      "constant": true
    },
    {
      "inputs": [
        {
          "internalType": "uint256",
          "name": "tokenId",
          "type": "uint256"
        }
      ],
      "name": "tokenURI",
      "outputs": [
        {
          "internalType": "string",
          "name": "",
          "type": "string"
        }
      ],
      "stateMutability": "view",
      "type": "function",
      "constant": true
    },
    {
      "inputs": [],
      "name": "totalSupply",
      "outputs": [
        {
          "internalType": "uint256",
          "name": "",
          "type": "uint256"
        }
      ],
      "stateMutability": "view",
      "type": "function",
      "constant": true
    },
    {
      "inputs": [
        {
          "internalType": "address",
          "name": "from",
          "type": "address"
        },
        {
          "internalType": "address",
          "name": "to",
          "type": "address"
        },
        {
          "internalType": "uint256",
          "name": "tokenId",
          "type": "uint256"
        }
      ],
      "name": "transferFrom",
      "outputs": [],
      "stateMutability": "nonpayable",
      "type": "function"
    },
    {
      "inputs": [
        {
          "internalType": "address",
          "name": "newOwner",
          "type": "address"
        }
      ],
      "name": "transferOwnership",
      "outputs": [],
      "stateMutability": "nonpayable",
      "type": "function"
    },
    {
      "inputs": [
        {
          "internalType": "address",
          "name": "_address",
          "type": "address"
        }
      ],
      "name": "setStoreAddress",
      "outputs": [],
      "stateMutability": "nonpayable",
      "type": "function"
    },
    {
      "inputs": [
        {
          "internalType": "string",
          "name": "name",
          "type": "string"
        },
        {
          "internalType": "bool",
          "name": "bio",
          "type": "bool"
        }
      ],
      "name": "createProduct",
      "outputs": [],
      "stateMutability": "nonpayable",
      "type": "function"
    },
    {
      "inputs": [
        {
          "internalType": "uint256",
          "name": "productId",
          "type": "uint256"
        },
        {
          "internalType": "uint256",
          "name": "price",
          "type": "uint256"
        }
      ],
      "name": "setProductForSale",
      "outputs": [],
      "stateMutability": "nonpayable",
      "type": "function"
    },
    {
      "inputs": [
        {
          "internalType": "uint256",
          "name": "productId",
          "type": "uint256"
        }
      ],
      "name": "setProductNotForSale",
      "outputs": [],
      "stateMutability": "nonpayable",
      "type": "function"
    },
    {
      "inputs": [
        {
          "internalType": "uint256",
          "name": "id",
          "type": "uint256"
        }
      ],
      "name": "getProductName",
      "outputs": [
        {
          "internalType": "string",
          "name": "name",
          "type": "string"
        }
      ],
      "stateMutability": "view",
      "type": "function",
      "constant": true
    },
    {
      "inputs": [
        {
          "internalType": "uint256",
          "name": "id",
          "type": "uint256"
        }
      ],
      "name": "isProductBio",
      "outputs": [
        {
          "internalType": "bool",
          "name": "bio",
          "type": "bool"
        }
      ],
      "stateMutability": "view",
      "type": "function",
      "constant": true
    },
    {
      "inputs": [
        {
          "internalType": "uint256",
          "name": "id",
          "type": "uint256"
        }
      ],
      "name": "getProductPrice",
      "outputs": [
        {
          "internalType": "uint256",
          "name": "price",
          "type": "uint256"
        }
      ],
      "stateMutability": "view",
      "type": "function",
      "constant": true
    },
    {
      "inputs": [
        {
          "internalType": "uint256",
          "name": "id",
          "type": "uint256"
        }
      ],
      "name": "getProductCreator",
      "outputs": [
        {
          "internalType": "address",
          "name": "creator",
          "type": "address"
        }
      ],
      "stateMutability": "view",
      "type": "function",
      "constant": true
    },
    {
      "inputs": [
        {
          "internalType": "uint256",
          "name": "id",
          "type": "uint256"
        }
      ],
      "name": "isProductForSale",
      "outputs": [
        {
          "internalType": "bool",
          "name": "forSale",
          "type": "bool"
        }
      ],
      "stateMutability": "view",
      "type": "function",
      "constant": true
    },
    {
      "inputs": [],
      "name": "getStoreAddress",
      "outputs": [
        {
          "internalType": "address",
          "name": "",
          "type": "address"
        }
      ],
      "stateMutability": "view",
      "type": "function",
      "constant": true
    },
    {
      "inputs": [],
      "name": "isProductToken",
      "outputs": [
        {
          "internalType": "bool",
          "name": "",
          "type": "bool"
        }
      ],
      "stateMutability": "pure",
      "type": "function",
      "constant": true
    }
  ],
  "bytecode": "0x60806040523480156200001157600080fd5b506040518060400160405280601f81526020017f546f6b656e697a65642042696f6469766572736974792050726f6475637473008152506040518060400160405280600381526020017f5442500000000000000000000000000000000000000000000000000000000000815250620000966301ffc9a760e01b620001d160201b60201c565b8160069080519060200190620000ae929190620002e2565b508060079080519060200190620000c7929190620002e2565b50620000e06380ac58cd60e01b620001d160201b60201c565b620000f8635b5e139f60e01b620001d160201b60201c565b6200011063780e9d6360e01b620001d160201b60201c565b5050600062000124620002da60201b60201c565b905080600a60006101000a81548173ffffffffffffffffffffffffffffffffffffffff021916908373ffffffffffffffffffffffffffffffffffffffff1602179055508073ffffffffffffffffffffffffffffffffffffffff16600073ffffffffffffffffffffffffffffffffffffffff167f8be0079c531659141344cd1fd0a4f28419497f9722a3daafe3b4186f6b6457e060405160405180910390a3506000600c8190555062000388565b63ffffffff60e01b817bffffffffffffffffffffffffffffffffffffffffffffffffffffffff191614156200026e576040517f08c379a000000000000000000000000000000000000000000000000000000000815260040180806020018281038252601c8152602001807f4552433136353a20696e76616c696420696e746572666163652069640000000081525060200191505060405180910390fd5b6001600080837bffffffffffffffffffffffffffffffffffffffffffffffffffffffff19167bffffffffffffffffffffffffffffffffffffffffffffffffffffffff1916815260200190815260200160002060006101000a81548160ff02191690831515021790555050565b600033905090565b828054600181600116156101000203166002900490600052602060002090601f016020900481019282601f106200032557805160ff191683800117855562000356565b8280016001018555821562000356579182015b828111156200035557825182559160200191906001019062000338565b5b50905062000365919062000369565b5090565b5b80821115620003845760008160009055506001016200036a565b5090565b61395580620003986000396000f3fe608060405234801561001057600080fd5b50600436106101e55760003560e01c8063715018a61161010f578063afb67808116100a2578063d4230c6411610071578063d4230c6414610bf8578063e7bf7dfc14610c50578063e985e9c514610c92578063f2fde38b14610d0c576101e5565b8063afb6780814610951578063b07ed3a914610a18578063b88d4fde14610a4c578063c87b56dd14610b51576101e5565b80638da5cb5b116100de5780638da5cb5b146107a357806395d89b41146107d75780639e62e7951461085a578063a22cb46514610901576101e5565b8063715018a6146106ef57806377c7008c146106f957806385ef87ae14610727578063870877d71461076b576101e5565b806325dd2080116101875780636352211e116101565780636352211e146105785780636559e59a146105d05780636c0360eb1461061457806370a0823114610697576101e5565b806325dd2080146104465780632f745c591461046657806342842e0e146104c85780634f6ccce714610536576101e5565b8063081812fc116101c3578063081812fc14610314578063095ea7b31461036c57806318160ddd146103ba57806323b872dd146103d8576101e5565b806301ffc9a7146101ea5780630376c2421461024d57806306fdde0314610291575b600080fd5b6102356004803603602081101561020057600080fd5b8101908080357bffffffffffffffffffffffffffffffffffffffffffffffffffffffff19169060200190929190505050610d50565b60405180821515815260200191505060405180910390f35b6102796004803603602081101561026357600080fd5b8101908080359060200190929190505050610db7565b60405180821515815260200191505060405180910390f35b610299610de4565b6040518080602001828103825283818151815260200191508051906020019080838360005b838110156102d95780820151818401526020810190506102be565b50505050905090810190601f1680156103065780820380516001836020036101000a031916815260200191505b509250505060405180910390f35b6103406004803603602081101561032a57600080fd5b8101908080359060200190929190505050610e86565b604051808273ffffffffffffffffffffffffffffffffffffffff16815260200191505060405180910390f35b6103b86004803603604081101561038257600080fd5b81019080803573ffffffffffffffffffffffffffffffffffffffff16906020019092919080359060200190929190505050610f21565b005b6103c2611065565b6040518082815260200191505060405180910390f35b610444600480360360608110156103ee57600080fd5b81019080803573ffffffffffffffffffffffffffffffffffffffff169060200190929190803573ffffffffffffffffffffffffffffffffffffffff16906020019092919080359060200190929190505050611076565b005b61044e6110ec565b60405180821515815260200191505060405180910390f35b6104b26004803603604081101561047c57600080fd5b81019080803573ffffffffffffffffffffffffffffffffffffffff169060200190929190803590602001909291905050506110f5565b6040518082815260200191505060405180910390f35b610534600480360360608110156104de57600080fd5b81019080803573ffffffffffffffffffffffffffffffffffffffff169060200190929190803573ffffffffffffffffffffffffffffffffffffffff16906020019092919080359060200190929190505050611150565b005b6105626004803603602081101561054c57600080fd5b8101908080359060200190929190505050611170565b6040518082815260200191505060405180910390f35b6105a46004803603602081101561058e57600080fd5b8101908080359060200190929190505050611193565b604051808273ffffffffffffffffffffffffffffffffffffffff16815260200191505060405180910390f35b610612600480360360208110156105e657600080fd5b81019080803573ffffffffffffffffffffffffffffffffffffffff1690602001909291905050506111ca565b005b61061c6112d8565b6040518080602001828103825283818151815260200191508051906020019080838360005b8381101561065c578082015181840152602081019050610641565b50505050905090810190601f1680156106895780820380516001836020036101000a031916815260200191505b509250505060405180910390f35b6106d9600480360360208110156106ad57600080fd5b81019080803573ffffffffffffffffffffffffffffffffffffffff16906020019092919050505061137a565b6040518082815260200191505060405180910390f35b6106f761144f565b005b6107256004803603602081101561070f57600080fd5b81019080803590602001909291905050506115da565b005b6107536004803603602081101561073d57600080fd5b8101908080359060200190929190505050611666565b60405180821515815260200191505060405180910390f35b6107a16004803603604081101561078157600080fd5b810190808035906020019092919080359060200190929190505050611693565b005b6107ab6117ac565b604051808273ffffffffffffffffffffffffffffffffffffffff16815260200191505060405180910390f35b6107df6117d6565b6040518080602001828103825283818151815260200191508051906020019080838360005b8381101561081f578082015181840152602081019050610804565b50505050905090810190601f16801561084c5780820380516001836020036101000a031916815260200191505b509250505060405180910390f35b6108866004803603602081101561087057600080fd5b8101908080359060200190929190505050611878565b6040518080602001828103825283818151815260200191508051906020019080838360005b838110156108c65780820151818401526020810190506108ab565b50505050905090810190601f1680156108f35780820380516001836020036101000a031916815260200191505b509250505060405180910390f35b61094f6004803603604081101561091757600080fd5b81019080803573ffffffffffffffffffffffffffffffffffffffff169060200190929190803515159060200190929190505050611930565b005b610a166004803603604081101561096757600080fd5b810190808035906020019064010000000081111561098457600080fd5b82018360208201111561099657600080fd5b803590602001918460018302840111640100000000831117156109b857600080fd5b91908080601f016020809104026020016040519081016040528093929190818152602001838380828437600081840152601f19601f820116905080830192505050505050509192919290803515159060200190929190505050611ae6565b005b610a20611af4565b604051808273ffffffffffffffffffffffffffffffffffffffff16815260200191505060405180910390f35b610b4f60048036036080811015610a6257600080fd5b81019080803573ffffffffffffffffffffffffffffffffffffffff169060200190929190803573ffffffffffffffffffffffffffffffffffffffff1690602001909291908035906020019092919080359060200190640100000000811115610ac957600080fd5b820183602082011115610adb57600080fd5b80359060200191846001830284011164010000000083111715610afd57600080fd5b91908080601f016020809104026020016040519081016040528093929190818152602001838380828437600081840152601f19601f820116905080830192505050505050509192919290505050611b1e565b005b610b7d60048036036020811015610b6757600080fd5b8101908080359060200190929190505050611b96565b6040518080602001828103825283818151815260200191508051906020019080838360005b83811015610bbd578082015181840152602081019050610ba2565b50505050905090810190601f168015610bea5780820380516001836020036101000a031916815260200191505b509250505060405180910390f35b610c2460048036036020811015610c0e57600080fd5b8101908080359060200190929190505050611e7f565b604051808273ffffffffffffffffffffffffffffffffffffffff16815260200191505060405180910390f35b610c7c60048036036020811015610c6657600080fd5b8101908080359060200190929190505050611ebf565b6040518082815260200191505060405180910390f35b610cf460048036036040811015610ca857600080fd5b81019080803573ffffffffffffffffffffffffffffffffffffffff169060200190929190803573ffffffffffffffffffffffffffffffffffffffff169060200190929190505050611edf565b60405180821515815260200191505060405180910390f35b610d4e60048036036020811015610d2257600080fd5b81019080803573ffffffffffffffffffffffffffffffffffffffff169060200190929190505050611f73565b005b6000806000837bffffffffffffffffffffffffffffffffffffffffffffffffffffffff19167bffffffffffffffffffffffffffffffffffffffffffffffffffffffff1916815260200190815260200160002060009054906101000a900460ff169050919050565b6000600d600083815260200190815260200160002060010160009054906101000a900460ff169050919050565b606060068054600181600116156101000203166002900480601f016020809104026020016040519081016040528092919081815260200182805460018160011615610100020316600290048015610e7c5780601f10610e5157610100808354040283529160200191610e7c565b820191906000526020600020905b815481529060010190602001808311610e5f57829003601f168201915b5050505050905090565b6000610e9182612183565b610ee6576040517f08c379a000000000000000000000000000000000000000000000000000000000815260040180806020018281038252602c81526020018061384a602c913960400191505060405180910390fd5b6004600083815260200190815260200160002060009054906101000a900473ffffffffffffffffffffffffffffffffffffffff169050919050565b6000610f2c82611193565b90508073ffffffffffffffffffffffffffffffffffffffff168373ffffffffffffffffffffffffffffffffffffffff161415610fb3576040517f08c379a00000000000000000000000000000000000000000000000000000000081526004018080602001828103825260218152602001806138ce6021913960400191505060405180910390fd5b8073ffffffffffffffffffffffffffffffffffffffff16610fd26121a0565b73ffffffffffffffffffffffffffffffffffffffff161480611001575061100081610ffb6121a0565b611edf565b5b611056576040517f08c379a000000000000000000000000000000000000000000000000000000000815260040180806020018281038252603881526020018061379d6038913960400191505060405180910390fd5b61106083836121a8565b505050565b60006110716002612261565b905090565b6110876110816121a0565b82612276565b6110dc576040517f08c379a00000000000000000000000000000000000000000000000000000000081526004018080602001828103825260318152602001806138ef6031913960400191505060405180910390fd5b6110e783838361236a565b505050565b60006001905090565b600061114882600160008673ffffffffffffffffffffffffffffffffffffffff1673ffffffffffffffffffffffffffffffffffffffff1681526020019081526020016000206125ad90919063ffffffff16565b905092915050565b61116b83838360405180602001604052806000815250611b1e565b505050565b6000806111878360026125c790919063ffffffff16565b50905080915050919050565b60006111c3826040518060600160405280602981526020016137ff6029913960026125f39092919063ffffffff16565b9050919050565b6111d26121a0565b73ffffffffffffffffffffffffffffffffffffffff16600a60009054906101000a900473ffffffffffffffffffffffffffffffffffffffff1673ffffffffffffffffffffffffffffffffffffffff1614611294576040517f08c379a00000000000000000000000000000000000000000000000000000000081526004018080602001828103825260208152602001807f4f776e61626c653a2063616c6c6572206973206e6f7420746865206f776e657281525060200191505060405180910390fd5b80600b60006101000a81548173ffffffffffffffffffffffffffffffffffffffff021916908373ffffffffffffffffffffffffffffffffffffffff16021790555050565b606060098054600181600116156101000203166002900480601f0160208091040260200160405190810160405280929190818152602001828054600181600116156101000203166002900480156113705780601f1061134557610100808354040283529160200191611370565b820191906000526020600020905b81548152906001019060200180831161135357829003601f168201915b5050505050905090565b60008073ffffffffffffffffffffffffffffffffffffffff168273ffffffffffffffffffffffffffffffffffffffff161415611401576040517f08c379a000000000000000000000000000000000000000000000000000000000815260040180806020018281038252602a8152602001806137d5602a913960400191505060405180910390fd5b611448600160008473ffffffffffffffffffffffffffffffffffffffff1673ffffffffffffffffffffffffffffffffffffffff168152602001908152602001600020612612565b9050919050565b6114576121a0565b73ffffffffffffffffffffffffffffffffffffffff16600a60009054906101000a900473ffffffffffffffffffffffffffffffffffffffff1673ffffffffffffffffffffffffffffffffffffffff1614611519576040517f08c379a00000000000000000000000000000000000000000000000000000000081526004018080602001828103825260208152602001807f4f776e61626c653a2063616c6c6572206973206e6f7420746865206f776e657281525060200191505060405180910390fd5b600073ffffffffffffffffffffffffffffffffffffffff16600a60009054906101000a900473ffffffffffffffffffffffffffffffffffffffff1673ffffffffffffffffffffffffffffffffffffffff167f8be0079c531659141344cd1fd0a4f28419497f9722a3daafe3b4186f6b6457e060405160405180910390a36000600a60006101000a81548173ffffffffffffffffffffffffffffffffffffffff021916908373ffffffffffffffffffffffffffffffffffffffff160217905550565b600b60009054906101000a900473ffffffffffffffffffffffffffffffffffffffff1673ffffffffffffffffffffffffffffffffffffffff163373ffffffffffffffffffffffffffffffffffffffff161461163457600080fd5b6000600d600083815260200190815260200160002060030160146101000a81548160ff02191690831515021790555050565b6000600d600083815260200190815260200160002060030160149054906101000a900460ff169050919050565b813373ffffffffffffffffffffffffffffffffffffffff166116b482611193565b73ffffffffffffffffffffffffffffffffffffffff16146116d457600080fd5b600073ffffffffffffffffffffffffffffffffffffffff16600b60009054906101000a900473ffffffffffffffffffffffffffffffffffffffff1673ffffffffffffffffffffffffffffffffffffffff16141561173057600080fd5b61175d600b60009054906101000a900473ffffffffffffffffffffffffffffffffffffffff166001611930565b81600d6000858152602001908152602001600020600201819055506001600d600085815260200190815260200160002060030160146101000a81548160ff021916908315150217905550505050565b6000600a60009054906101000a900473ffffffffffffffffffffffffffffffffffffffff16905090565b606060078054600181600116156101000203166002900480601f01602080910402602001604051908101604052809291908181526020018280546001816001161561010002031660029004801561186e5780601f106118435761010080835404028352916020019161186e565b820191906000526020600020905b81548152906001019060200180831161185157829003601f168201915b5050505050905090565b6060600d60008381526020019081526020016000206000018054600181600116156101000203166002900480601f0160208091040260200160405190810160405280929190818152602001828054600181600116156101000203166002900480156119245780601f106118f957610100808354040283529160200191611924565b820191906000526020600020905b81548152906001019060200180831161190757829003601f168201915b50505050509050919050565b6119386121a0565b73ffffffffffffffffffffffffffffffffffffffff168273ffffffffffffffffffffffffffffffffffffffff1614156119d9576040517f08c379a00000000000000000000000000000000000000000000000000000000081526004018080602001828103825260198152602001807f4552433732313a20617070726f766520746f2063616c6c65720000000000000081525060200191505060405180910390fd5b80600560006119e66121a0565b73ffffffffffffffffffffffffffffffffffffffff1673ffffffffffffffffffffffffffffffffffffffff16815260200190815260200160002060008473ffffffffffffffffffffffffffffffffffffffff1673ffffffffffffffffffffffffffffffffffffffff16815260200190815260200160002060006101000a81548160ff0219169083151502179055508173ffffffffffffffffffffffffffffffffffffffff16611a936121a0565b73ffffffffffffffffffffffffffffffffffffffff167f17307eab39ab6107e8899845ad3d59bd9653f200f220920489ca2b5937696c318360405180821515815260200191505060405180910390a35050565b611af08282612627565b5050565b6000600b60009054906101000a900473ffffffffffffffffffffffffffffffffffffffff16905090565b611b2f611b296121a0565b83612276565b611b84576040517f08c379a00000000000000000000000000000000000000000000000000000000081526004018080602001828103825260318152602001806138ef6031913960400191505060405180910390fd5b611b908484848461275c565b50505050565b6060611ba182612183565b611bf6576040517f08c379a000000000000000000000000000000000000000000000000000000000815260040180806020018281038252602f81526020018061389f602f913960400191505060405180910390fd5b6060600860008481526020019081526020016000208054600181600116156101000203166002900480601f016020809104026020016040519081016040528092919081815260200182805460018160011615610100020316600290048015611c9f5780601f10611c7457610100808354040283529160200191611c9f565b820191906000526020600020905b815481529060010190602001808311611c8257829003601f168201915b50505050509050600060098054600181600116156101000203166002900490501415611cce5780915050611e7a565b600081511115611da7576009816040516020018083805460018160011615610100020316600290048015611d395780601f10611d17576101008083540402835291820191611d39565b820191906000526020600020905b815481529060010190602001808311611d25575b505082805190602001908083835b60208310611d6a5780518252602082019150602081019050602083039250611d47565b6001836020036101000a03801982511681845116808217855250505050505090500192505050604051602081830303815290604052915050611e7a565b6009611db2846127ce565b6040516020018083805460018160011615610100020316600290048015611e105780601f10611dee576101008083540402835291820191611e10565b820191906000526020600020905b815481529060010190602001808311611dfc575b505082805190602001908083835b60208310611e415780518252602082019150602081019050602083039250611e1e565b6001836020036101000a038019825116818451168082178552505050505050905001925050506040516020818303038152906040529150505b919050565b6000600d600083815260200190815260200160002060030160009054906101000a900473ffffffffffffffffffffffffffffffffffffffff169050919050565b6000600d6000838152602001908152602001600020600201549050919050565b6000600560008473ffffffffffffffffffffffffffffffffffffffff1673ffffffffffffffffffffffffffffffffffffffff16815260200190815260200160002060008373ffffffffffffffffffffffffffffffffffffffff1673ffffffffffffffffffffffffffffffffffffffff16815260200190815260200160002060009054906101000a900460ff16905092915050565b611f7b6121a0565b73ffffffffffffffffffffffffffffffffffffffff16600a60009054906101000a900473ffffffffffffffffffffffffffffffffffffffff1673ffffffffffffffffffffffffffffffffffffffff161461203d576040517f08c379a00000000000000000000000000000000000000000000000000000000081526004018080602001828103825260208152602001807f4f776e61626c653a2063616c6c6572206973206e6f7420746865206f776e657281525060200191505060405180910390fd5b600073ffffffffffffffffffffffffffffffffffffffff168173ffffffffffffffffffffffffffffffffffffffff1614156120c3576040517f08c379a00000000000000000000000000000000000000000000000000000000081526004018080602001828103825260268152602001806137016026913960400191505060405180910390fd5b8073ffffffffffffffffffffffffffffffffffffffff16600a60009054906101000a900473ffffffffffffffffffffffffffffffffffffffff1673ffffffffffffffffffffffffffffffffffffffff167f8be0079c531659141344cd1fd0a4f28419497f9722a3daafe3b4186f6b6457e060405160405180910390a380600a60006101000a81548173ffffffffffffffffffffffffffffffffffffffff021916908373ffffffffffffffffffffffffffffffffffffffff16021790555050565b600061219982600261291590919063ffffffff16565b9050919050565b600033905090565b816004600083815260200190815260200160002060006101000a81548173ffffffffffffffffffffffffffffffffffffffff021916908373ffffffffffffffffffffffffffffffffffffffff160217905550808273ffffffffffffffffffffffffffffffffffffffff1661221b83611193565b73ffffffffffffffffffffffffffffffffffffffff167f8c5be1e5ebec7d5bd14f71427d1e84f3dd0314c0f7b2291e5b200ac8c7c3b92560405160405180910390a45050565b600061226f8260000161292f565b9050919050565b600061228182612183565b6122d6576040517f08c379a000000000000000000000000000000000000000000000000000000000815260040180806020018281038252602c815260200180613771602c913960400191505060405180910390fd5b60006122e183611193565b90508073ffffffffffffffffffffffffffffffffffffffff168473ffffffffffffffffffffffffffffffffffffffff16148061235057508373ffffffffffffffffffffffffffffffffffffffff1661233884610e86565b73ffffffffffffffffffffffffffffffffffffffff16145b8061236157506123608185611edf565b5b91505092915050565b8273ffffffffffffffffffffffffffffffffffffffff1661238a82611193565b73ffffffffffffffffffffffffffffffffffffffff16146123f6576040517f08c379a00000000000000000000000000000000000000000000000000000000081526004018080602001828103825260298152602001806138766029913960400191505060405180910390fd5b600073ffffffffffffffffffffffffffffffffffffffff168273ffffffffffffffffffffffffffffffffffffffff16141561247c576040517f08c379a00000000000000000000000000000000000000000000000000000000081526004018080602001828103825260248152602001806137276024913960400191505060405180910390fd5b612487838383612940565b6124926000826121a8565b6124e381600160008673ffffffffffffffffffffffffffffffffffffffff1673ffffffffffffffffffffffffffffffffffffffff16815260200190815260200160002061294590919063ffffffff16565b5061253581600160008573ffffffffffffffffffffffffffffffffffffffff1673ffffffffffffffffffffffffffffffffffffffff16815260200190815260200160002061295f90919063ffffffff16565b5061254c818360026129799092919063ffffffff16565b50808273ffffffffffffffffffffffffffffffffffffffff168473ffffffffffffffffffffffffffffffffffffffff167fddf252ad1be2c89b69c2b068fc378daa952ba7f163c4a11628f55a4df523b3ef60405160405180910390a4505050565b60006125bc83600001836129ae565b60001c905092915050565b6000806000806125da8660000186612a31565b915091508160001c8160001c9350935050509250929050565b6000612606846000018460001b84612aca565b60001c90509392505050565b600061262082600001612bc0565b9050919050565b61263d6001600c54612bd190919063ffffffff16565b600c819055506040518060a001604052808381526020018215158152602001600081526020013373ffffffffffffffffffffffffffffffffffffffff16815260200160001515815250600d6000600c54815260200190815260200160002060008201518160000190805190602001906126b792919061360f565b5060208201518160010160006101000a81548160ff0219169083151502179055506040820151816002015560608201518160030160006101000a81548173ffffffffffffffffffffffffffffffffffffffff021916908373ffffffffffffffffffffffffffffffffffffffff16021790555060808201518160030160146101000a81548160ff02191690831515021790555090505061275833600c54612c59565b5050565b61276784848461236a565b61277384848484612c77565b6127c8576040517f08c379a00000000000000000000000000000000000000000000000000000000081526004018080602001828103825260328152602001806136cf6032913960400191505060405180910390fd5b50505050565b60606000821415612816576040518060400160405280600181526020017f30000000000000000000000000000000000000000000000000000000000000008152509050612910565b600082905060005b60008214612840578080600101915050600a828161283857fe5b04915061281e565b60608167ffffffffffffffff8111801561285957600080fd5b506040519080825280601f01601f19166020018201604052801561288c5781602001600182028036833780820191505090505b50905060006001830390508593505b6000841461290857600a84816128ad57fe5b0660300160f81b828280600190039350815181106128c757fe5b60200101907effffffffffffffffffffffffffffffffffffffffffffffffffffffffffffff1916908160001a905350600a848161290057fe5b04935061289b565b819450505050505b919050565b6000612927836000018360001b612e90565b905092915050565b600081600001805490509050919050565b505050565b6000612957836000018360001b612eb3565b905092915050565b6000612971836000018360001b612f9b565b905092915050565b60006129a5846000018460001b8473ffffffffffffffffffffffffffffffffffffffff1660001b61300b565b90509392505050565b600081836000018054905011612a0f576040517f08c379a00000000000000000000000000000000000000000000000000000000081526004018080602001828103825260228152602001806136ad6022913960400191505060405180910390fd5b826000018281548110612a1e57fe5b9060005260206000200154905092915050565b60008082846000018054905011612a93576040517f08c379a00000000000000000000000000000000000000000000000000000000081526004018080602001828103825260228152602001806138286022913960400191505060405180910390fd5b6000846000018481548110612aa457fe5b906000526020600020906002020190508060000154816001015492509250509250929050565b60008084600101600085815260200190815260200160002054905060008114158390612b91576040517f08c379a00000000000000000000000000000000000000000000000000000000081526004018080602001828103825283818151815260200191508051906020019080838360005b83811015612b56578082015181840152602081019050612b3b565b50505050905090810190601f168015612b835780820380516001836020036101000a031916815260200191505b509250505060405180910390fd5b50846000016001820381548110612ba457fe5b9060005260206000209060020201600101549150509392505050565b600081600001805490509050919050565b600080828401905083811015612c4f576040517f08c379a000000000000000000000000000000000000000000000000000000000815260040180806020018281038252601b8152602001807f536166654d6174683a206164646974696f6e206f766572666c6f77000000000081525060200191505060405180910390fd5b8091505092915050565b612c738282604051806020016040528060008152506130e7565b5050565b6000612c988473ffffffffffffffffffffffffffffffffffffffff16613158565b612ca55760019050612e88565b6060612e0f63150b7a0260e01b612cba6121a0565b888787604051602401808573ffffffffffffffffffffffffffffffffffffffff1681526020018473ffffffffffffffffffffffffffffffffffffffff16815260200183815260200180602001828103825283818151815260200191508051906020019080838360005b83811015612d3e578082015181840152602081019050612d23565b50505050905090810190601f168015612d6b5780820380516001836020036101000a031916815260200191505b5095505050505050604051602081830303815290604052907bffffffffffffffffffffffffffffffffffffffffffffffffffffffff19166020820180517bffffffffffffffffffffffffffffffffffffffffffffffffffffffff83818316178352505050506040518060600160405280603281526020016136cf603291398773ffffffffffffffffffffffffffffffffffffffff1661316b9092919063ffffffff16565b90506000818060200190516020811015612e2857600080fd5b8101908080519060200190929190505050905063150b7a0260e01b7bffffffffffffffffffffffffffffffffffffffffffffffffffffffff1916817bffffffffffffffffffffffffffffffffffffffffffffffffffffffff191614925050505b949350505050565b600080836001016000848152602001908152602001600020541415905092915050565b60008083600101600084815260200190815260200160002054905060008114612f8f5760006001820390506000600186600001805490500390506000866000018281548110612efe57fe5b9060005260206000200154905080876000018481548110612f1b57fe5b9060005260206000200181905550600183018760010160008381526020019081526020016000208190555086600001805480612f5357fe5b60019003818190600052602060002001600090559055866001016000878152602001908152602001600020600090556001945050505050612f95565b60009150505b92915050565b6000612fa78383613183565b613000578260000182908060018154018082558091505060019003906000526020600020016000909190919091505582600001805490508360010160008481526020019081526020016000208190555060019050613005565b600090505b92915050565b60008084600101600085815260200190815260200160002054905060008114156130b2578460000160405180604001604052808681526020018581525090806001815401808255809150506001900390600052602060002090600202016000909190919091506000820151816000015560208201518160010155505084600001805490508560010160008681526020019081526020016000208190555060019150506130e0565b828560000160018303815481106130c557fe5b90600052602060002090600202016001018190555060009150505b9392505050565b6130f183836131a6565b6130fe6000848484612c77565b613153576040517f08c379a00000000000000000000000000000000000000000000000000000000081526004018080602001828103825260328152602001806136cf6032913960400191505060405180910390fd5b505050565b600080823b905060008111915050919050565b606061317a848460008561339a565b90509392505050565b600080836001016000848152602001908152602001600020541415905092915050565b600073ffffffffffffffffffffffffffffffffffffffff168273ffffffffffffffffffffffffffffffffffffffff161415613249576040517f08c379a00000000000000000000000000000000000000000000000000000000081526004018080602001828103825260208152602001807f4552433732313a206d696e7420746f20746865207a65726f206164647265737381525060200191505060405180910390fd5b61325281612183565b156132c5576040517f08c379a000000000000000000000000000000000000000000000000000000000815260040180806020018281038252601c8152602001807f4552433732313a20746f6b656e20616c7265616479206d696e7465640000000081525060200191505060405180910390fd5b6132d160008383612940565b61332281600160008573ffffffffffffffffffffffffffffffffffffffff1673ffffffffffffffffffffffffffffffffffffffff16815260200190815260200160002061295f90919063ffffffff16565b50613339818360026129799092919063ffffffff16565b50808273ffffffffffffffffffffffffffffffffffffffff16600073ffffffffffffffffffffffffffffffffffffffff167fddf252ad1be2c89b69c2b068fc378daa952ba7f163c4a11628f55a4df523b3ef60405160405180910390a45050565b6060824710156133f5576040517f08c379a000000000000000000000000000000000000000000000000000000000815260040180806020018281038252602681526020018061374b6026913960400191505060405180910390fd5b6133fe85613158565b613470576040517f08c379a000000000000000000000000000000000000000000000000000000000815260040180806020018281038252601d8152602001807f416464726573733a2063616c6c20746f206e6f6e2d636f6e747261637400000081525060200191505060405180910390fd5b600060608673ffffffffffffffffffffffffffffffffffffffff1685876040518082805190602001908083835b602083106134c0578051825260208201915060208101905060208303925061349d565b6001836020036101000a03801982511681845116808217855250505050505090500191505060006040518083038185875af1925050503d8060008114613522576040519150601f19603f3d011682016040523d82523d6000602084013e613527565b606091505b5091509150613537828286613543565b92505050949350505050565b6060831561355357829050613608565b6000835111156135665782518084602001fd5b816040517f08c379a00000000000000000000000000000000000000000000000000000000081526004018080602001828103825283818151815260200191508051906020019080838360005b838110156135cd5780820151818401526020810190506135b2565b50505050905090810190601f1680156135fa5780820380516001836020036101000a031916815260200191505b509250505060405180910390fd5b9392505050565b828054600181600116156101000203166002900490600052602060002090601f016020900481019282601f1061365057805160ff191683800117855561367e565b8280016001018555821561367e579182015b8281111561367d578251825591602001919060010190613662565b5b50905061368b919061368f565b5090565b5b808211156136a8576000816000905550600101613690565b509056fe456e756d657261626c655365743a20696e646578206f7574206f6620626f756e64734552433732313a207472616e7366657220746f206e6f6e20455243373231526563656976657220696d706c656d656e7465724f776e61626c653a206e6577206f776e657220697320746865207a65726f20616464726573734552433732313a207472616e7366657220746f20746865207a65726f2061646472657373416464726573733a20696e73756666696369656e742062616c616e636520666f722063616c6c4552433732313a206f70657261746f7220717565727920666f72206e6f6e6578697374656e7420746f6b656e4552433732313a20617070726f76652063616c6c6572206973206e6f74206f776e6572206e6f7220617070726f76656420666f7220616c6c4552433732313a2062616c616e636520717565727920666f7220746865207a65726f20616464726573734552433732313a206f776e657220717565727920666f72206e6f6e6578697374656e7420746f6b656e456e756d657261626c654d61703a20696e646578206f7574206f6620626f756e64734552433732313a20617070726f76656420717565727920666f72206e6f6e6578697374656e7420746f6b656e4552433732313a207472616e73666572206f6620746f6b656e2074686174206973206e6f74206f776e4552433732314d657461646174613a2055524920717565727920666f72206e6f6e6578697374656e7420746f6b656e4552433732313a20617070726f76616c20746f2063757272656e74206f776e65724552433732313a207472616e736665722063616c6c6572206973206e6f74206f776e6572206e6f7220617070726f766564a264697066735822122094fe191d7fdf37aba8c05f7f4415e055c7c60dc34840d7fd105d2d4f59542d9e64736f6c634300060c0033",
  "immutableReferences": {},
  "source": "pragma solidity ^0.6.0;\n\nimport \"@openzeppelin/contracts/access/Ownable.sol\";\nimport \"@openzeppelin/contracts/token/ERC721/ERC721.sol\";\n\n/// @title Tokenized Biodiversity Products\n/// @author Brbara Schorchit\n/// @notice Create tokenized (ERC721) versions of biodiverdity products\ncontract ProductToken is ERC721, Ownable {\n\n  address internal storeAddress;\n  uint newProductId;\n\n  struct Product {\n    string name;\n    bool bio;\n    uint price;\n    address creator;\n    bool forSale;\n  }\n\n  mapping (uint => Product) idToProduct;\n\n  modifier onlyProductOwner(uint _productId) { require(ownerOf(_productId) == msg.sender); _; }\n\n  /// @dev Contract constructor calls ERC721 constructor and pass the name and symbol parameters\n  constructor() ERC721(\"Tokenized Biodiversity Products\", \"TBP\") public {\n    newProductId = 0;\n  }\n\n  /// @notice Register the contract address for the token marketplace\n  /// @param _address Deployed Product Store contract address\n  function setStoreAddress(address _address) public onlyOwner {\n    storeAddress = _address;\n  }\n\n  /// @notice Create a new ERC721 Tokenized Biodiversity Product \n  /// @dev Calls internal function to create product\n  /// @param name Product name\n  /// @param bio if the product is biodiversity based or not\n  function createProduct(string memory name, bool bio) public {\n    _createProduct(name, bio);\n  }\n\n  /// @notice Create a new ERC721 Tokenized Biodiversity Product \n  /// @dev Calls ERC721 function\n  /// @param _name The name of the product to be created\n  /// @param _bio if the product is biodiversity based or not\n  function _createProduct(string memory _name, bool _bio) internal {\n    newProductId = newProductId.add(1);\n    idToProduct[newProductId] = Product(_name, _bio, 0, msg.sender, false);\n    _safeMint(msg.sender, newProductId);\n  }\n\n  /// @notice Set a Product for Sale at the Marketplace\n  /// @dev Requires a product store contract address to be registered first\n  /// @param productId The Id of the product/ERC721 that will be set for sale\n  /// @param price The price of the product at the marketplace\n  function setProductForSale(uint productId, uint price) public onlyProductOwner(productId) {\n    require(storeAddress != address(0));\n    setApprovalForAll(storeAddress, true);\n    idToProduct[productId].price = price;\n    idToProduct[productId].forSale = true;\n  }\n\n  /// @notice Take product off the the Marketplace\n  /// @dev Store contract can call it after the product is sold\n  /// @param productId The Id of the product/ERC721 that will be set for sale\n  function setProductNotForSale(uint productId) public {\n    require(msg.sender == storeAddress);\n    idToProduct[productId].forSale = false;\n  }\n\n  /// @notice Returns the name of a product\n  /// @param id The Id of the product/ERC721 \n  /// @return name returns the name of the product\n  function getProductName (uint id) external view returns (string memory name) {\n    return idToProduct[id].name;\n  }\n\n  /// @notice Return if the product is biodiversity based or not\n  /// @param id The Id of the product/ERC721 \n  /// @return bio returns if the product is biodiversity based or not\n  function isProductBio (uint id) external view returns (bool bio) {\n    return idToProduct[id].bio;\n  }\n\n  /// @notice Returns the price of a product\n  /// @param id The Id of the product/ERC721 \n  /// @return price returns the price of a product\n  function getProductPrice (uint id) external view returns (uint price) {\n    return idToProduct[id].price;\n  }\n\n  /// @notice Returns the creator of a product\n  /// @param id The Id of the product/ERC721 \n  /// @return creator returns the creator of a product\n    function getProductCreator (uint id) external view returns (address creator) {\n    return idToProduct[id].creator;\n  }\n  \n  /// @notice Returns if a product is for sale or not\n  /// @param id The Id of the product/ERC721 \n  /// @return forSale returns if the product is for sale or not\n    function isProductForSale (uint id) external view returns (bool forSale) {\n    return idToProduct[id].forSale;\n  }\n\n  /// @notice Returns the address registered for the marketplace\n  /// @return storeAddress returns the address registered for the marketplace\n  function getStoreAddress () external view returns (address) {\n    return storeAddress;\n  }\n\n  /// @notice Returns true\n  /// @dev This function is useful to confirm if the address passed to ProductStore.sol constructor is correct\n  function isProductToken() external pure returns (bool) { return true; }\n}",
  "sourcePath": "/Users/bschorchit/consensys-bootcamp-final-project/contracts/ProductToken.sol",
  "compiler": {
    "name": "solc",
    "version": "0.6.12+commit.27d51765.Emscripten.clang"
  },
  "schemaVersion": "3.3.2",
  "updatedAt": "2020-12-15T04:36:19.902Z",
  "networkType": "ethereum",
  "devdoc": {
    "author": "Brbara Schorchit",
    "kind": "dev",
    "methods": {
      "approve(address,uint256)": {
        "details": "See {IERC721-approve}."
      },
      "balanceOf(address)": {
        "details": "See {IERC721-balanceOf}."
      },
      "baseURI()": {
        "details": "Returns the base URI set via {_setBaseURI}. This will be automatically added as a prefix in {tokenURI} to each token's URI, or to the token ID if no specific URI is set for that token ID."
      },
      "constructor": {
        "details": "Contract constructor calls ERC721 constructor and pass the name and symbol parameters"
      },
      "createProduct(string,bool)": {
        "details": "Calls internal function to create product",
        "params": {
          "bio": "if the product is biodiversity based or not",
          "name": "Product name"
        }
      },
      "getApproved(uint256)": {
        "details": "See {IERC721-getApproved}."
      },
      "getProductCreator(uint256)": {
        "params": {
          "id": "The Id of the product/ERC721 "
        },
        "returns": {
          "creator": "returns the creator of a product"
        }
      },
      "getProductName(uint256)": {
        "params": {
          "id": "The Id of the product/ERC721 "
        },
        "returns": {
          "name": "returns the name of the product"
        }
      },
      "getProductPrice(uint256)": {
        "params": {
          "id": "The Id of the product/ERC721 "
        },
        "returns": {
          "price": "returns the price of a product"
        }
      },
      "getStoreAddress()": {
        "returns": {
          "_0": "storeAddress returns the address registered for the marketplace"
        }
      },
      "isApprovedForAll(address,address)": {
        "details": "See {IERC721-isApprovedForAll}."
      },
      "isProductBio(uint256)": {
        "params": {
          "id": "The Id of the product/ERC721 "
        },
        "returns": {
          "bio": "returns if the product is biodiversity based or not"
        }
      },
      "isProductForSale(uint256)": {
        "params": {
          "id": "The Id of the product/ERC721 "
        },
        "returns": {
          "forSale": "returns if the product is for sale or not"
        }
      },
      "isProductToken()": {
        "details": "This function is useful to confirm if the address passed to ProductStore.sol constructor is correct"
      },
      "name()": {
        "details": "See {IERC721Metadata-name}."
      },
      "owner()": {
        "details": "Returns the address of the current owner."
      },
      "ownerOf(uint256)": {
        "details": "See {IERC721-ownerOf}."
      },
      "renounceOwnership()": {
        "details": "Leaves the contract without owner. It will not be possible to call `onlyOwner` functions anymore. Can only be called by the current owner. NOTE: Renouncing ownership will leave the contract without an owner, thereby removing any functionality that is only available to the owner."
      },
      "safeTransferFrom(address,address,uint256)": {
        "details": "See {IERC721-safeTransferFrom}."
      },
      "safeTransferFrom(address,address,uint256,bytes)": {
        "details": "See {IERC721-safeTransferFrom}."
      },
      "setApprovalForAll(address,bool)": {
        "details": "See {IERC721-setApprovalForAll}."
      },
      "setProductForSale(uint256,uint256)": {
        "details": "Requires a product store contract address to be registered first",
        "params": {
          "price": "The price of the product at the marketplace",
          "productId": "The Id of the product/ERC721 that will be set for sale"
        }
      },
      "setProductNotForSale(uint256)": {
        "details": "Store contract can call it after the product is sold",
        "params": {
          "productId": "The Id of the product/ERC721 that will be set for sale"
        }
      },
      "setStoreAddress(address)": {
        "params": {
          "_address": "Deployed Product Store contract address"
        }
      },
      "supportsInterface(bytes4)": {
        "details": "See {IERC165-supportsInterface}. Time complexity O(1), guaranteed to always use less than 30 000 gas."
      },
      "symbol()": {
        "details": "See {IERC721Metadata-symbol}."
      },
      "tokenByIndex(uint256)": {
        "details": "See {IERC721Enumerable-tokenByIndex}."
      },
      "tokenOfOwnerByIndex(address,uint256)": {
        "details": "See {IERC721Enumerable-tokenOfOwnerByIndex}."
      },
      "tokenURI(uint256)": {
        "details": "See {IERC721Metadata-tokenURI}."
      },
      "totalSupply()": {
        "details": "See {IERC721Enumerable-totalSupply}."
      },
      "transferFrom(address,address,uint256)": {
        "details": "See {IERC721-transferFrom}."
      },
      "transferOwnership(address)": {
        "details": "Transfers ownership of the contract to a new account (`newOwner`). Can only be called by the current owner."
      }
    },
    "title": "Tokenized Biodiversity Products",
    "version": 1
  },
  "userdoc": {
    "kind": "user",
    "methods": {
      "createProduct(string,bool)": {
        "notice": "Create a new ERC721 Tokenized Biodiversity Product "
      },
      "getProductCreator(uint256)": {
        "notice": "Returns the creator of a product"
      },
      "getProductName(uint256)": {
        "notice": "Returns the name of a product"
      },
      "getProductPrice(uint256)": {
        "notice": "Returns the price of a product"
      },
      "getStoreAddress()": {
        "notice": "Returns the address registered for the marketplace"
      },
      "isProductBio(uint256)": {
        "notice": "Return if the product is biodiversity based or not"
      },
      "isProductForSale(uint256)": {
        "notice": "Returns if a product is for sale or not"
      },
      "isProductToken()": {
        "notice": "Returns true"
      },
      "setProductForSale(uint256,uint256)": {
        "notice": "Set a Product for Sale at the Marketplace"
      },
      "setProductNotForSale(uint256)": {
        "notice": "Take product off the the Marketplace"
      },
      "setStoreAddress(address)": {
        "notice": "Register the contract address for the token marketplace"
      }
    },
    "notice": "Create tokenized (ERC721) versions of biodiverdity products",
    "version": 1
  }
}